{
  "address": "0x5FbDB2315678afecb367f032d93F642f64180aa3",
  "abi": [
    {
      "inputs": [],
      "stateMutability": "nonpayable",
      "type": "constructor"
    },
    {
      "inputs": [],
      "name": "RefundLimitReached",
      "type": "error"
    },
    {
      "anonymous": false,
      "inputs": [
        {
          "indexed": true,
          "internalType": "address",
          "name": "orderAddress",
          "type": "address"
        }
      ],
      "name": "OrderCreated",
      "type": "event"
    },
    {
      "anonymous": false,
      "inputs": [
        {
          "indexed": true,
          "internalType": "address",
          "name": "previousOwner",
          "type": "address"
        },
        {
          "indexed": true,
          "internalType": "address",
          "name": "newOwner",
          "type": "address"
        }
      ],
      "name": "OwnershipTransferred",
      "type": "event"
    },
    {
      "anonymous": false,
      "inputs": [
        {
          "indexed": true,
          "internalType": "address",
          "name": "sender",
          "type": "address"
        }
      ],
      "name": "Received",
      "type": "event"
    },
    {
      "inputs": [
        {
          "internalType": "address payable",
          "name": "_receiver",
          "type": "address"
        },
        {
          "internalType": "uint256",
          "name": "_amount",
          "type": "uint256"
        }
      ],
      "name": "issueRefund",
      "outputs": [],
      "stateMutability": "nonpayable",
      "type": "function"
    },
    {
      "inputs": [
        {
          "internalType": "uint256",
          "name": "_price",
          "type": "uint256"
        }
      ],
      "name": "newOrder",
      "outputs": [],
      "stateMutability": "nonpayable",
      "type": "function"
    },
    {
      "inputs": [
        {
          "internalType": "uint256",
          "name": "_paymentAmount",
          "type": "uint256"
        }
      ],
      "name": "onPaymentCallback",
      "outputs": [],
      "stateMutability": "nonpayable",
      "type": "function"
    },
    {
      "inputs": [
        {
          "internalType": "uint256",
          "name": "",
          "type": "uint256"
        }
      ],
      "name": "orders",
      "outputs": [
        {
          "internalType": "contract IOrder",
          "name": "",
          "type": "address"
        }
      ],
      "stateMutability": "view",
      "type": "function"
    },
    {
      "inputs": [],
      "name": "owner",
      "outputs": [
        {
          "internalType": "address",
          "name": "",
          "type": "address"
        }
      ],
      "stateMutability": "view",
      "type": "function"
    },
    {
      "inputs": [],
      "name": "pizzaNFT",
      "outputs": [
        {
          "internalType": "contract IPizzaNFT",
          "name": "",
          "type": "address"
        }
      ],
      "stateMutability": "view",
      "type": "function"
    },
    {
      "inputs": [],
      "name": "pizzaToken",
      "outputs": [
        {
          "internalType": "contract IPizzaToken",
          "name": "",
          "type": "address"
        }
      ],
      "stateMutability": "view",
      "type": "function"
    },
    {
      "inputs": [],
      "name": "renounceOwnership",
      "outputs": [],
      "stateMutability": "nonpayable",
      "type": "function"
    },
    {
      "inputs": [
        {
          "internalType": "uint256",
          "name": "am",
          "type": "uint256"
        }
      ],
      "name": "takeFunds",
      "outputs": [],
      "stateMutability": "nonpayable",
      "type": "function"
    },
    {
      "inputs": [
        {
          "internalType": "address",
          "name": "newOwner",
          "type": "address"
        }
      ],
      "name": "transferOwnership",
      "outputs": [],
      "stateMutability": "nonpayable",
      "type": "function"
    },
    {
      "stateMutability": "payable",
      "type": "receive"
    }
  ],
  "transactionHash": "0x11ba3f1923a43b3a16b7002f5849ea1b28c296405ceb7768774d5e7d828e3677",
  "args": [],
  "numDeployments": 1,
  "solcInputHash": "846fb0d66fd40ddec86692ccd379db1d",
  "bytecode": "0x60806040523480156200001157600080fd5b5062000032620000266200012a60201b60201c565b6200013260201b60201c565b306040516200004190620001f6565b6200004d919062000223565b604051809103906000f0801580156200006a573d6000803e3d6000fd5b50600460006101000a81548173ffffffffffffffffffffffffffffffffffffffff021916908373ffffffffffffffffffffffffffffffffffffffff16021790555030604051620000ba9062000204565b620000c6919062000223565b604051809103906000f080158015620000e3573d6000803e3d6000fd5b50600560006101000a81548173ffffffffffffffffffffffffffffffffffffffff021916908373ffffffffffffffffffffffffffffffffffffffff16021790555062000274565b600033905090565b60008060009054906101000a900473ffffffffffffffffffffffffffffffffffffffff169050816000806101000a81548173ffffffffffffffffffffffffffffffffffffffff021916908373ffffffffffffffffffffffffffffffffffffffff1602179055508173ffffffffffffffffffffffffffffffffffffffff168173ffffffffffffffffffffffffffffffffffffffff167f8be0079c531659141344cd1fd0a4f28419497f9722a3daafe3b4186f6b6457e060405160405180910390a35050565b612a128062001a9283390190565b6118c280620044a483390190565b6200021d8162000240565b82525050565b60006020820190506200023a600083018462000212565b92915050565b60006200024d8262000254565b9050919050565b600073ffffffffffffffffffffffffffffffffffffffff82169050919050565b61180e80620002846000396000f3fe608060405260043610620000a35760003560e01c8063a103249d1162000061578063a103249d1462000186578063a85c38ef14620001b4578063bd30542714620001f8578063f2fde38b1462000226578063f4da7fe1146200025457620000ab565b80636b527c0c14620000b0578063715018a614620000de578063738005aa14620000f857806387658f2314620001265780638da5cb5b146200015657620000ab565b36620000ab57005b600080fd5b348015620000bd57600080fd5b50620000dc6004803603810190620000d6919062000984565b62000284565b005b348015620000eb57600080fd5b50620000f6620002d9565b005b3480156200010557600080fd5b506200012460048036038101906200011e919062000943565b620002f1565b005b3480156200013357600080fd5b506200013e620003c6565b6040516200014d919062000adc565b60405180910390f35b3480156200016357600080fd5b506200016e620003ec565b6040516200017d919062000a75565b60405180910390f35b3480156200019357600080fd5b50620001b26004803603810190620001ac919062000984565b62000415565b005b348015620001c157600080fd5b50620001e06004803603810190620001da919062000984565b6200058d565b604051620001ef919062000abf565b60405180910390f35b3480156200020557600080fd5b506200022460048036038101906200021e919062000984565b620005cd565b005b3480156200023357600080fd5b506200025260048036038101906200024c919062000917565b620006c2565b005b3480156200026157600080fd5b506200026c6200074d565b6040516200027b919062000af9565b60405180910390f35b6200028e62000773565b3373ffffffffffffffffffffffffffffffffffffffff166108fc829081150290604051600060405180830381858888f19350505050158015620002d5573d6000803e3d6000fd5b5050565b620002e362000773565b620002ef6000620007f8565b565b620002fb62000773565b806201518060035410620003125760006002819055505b806002600082825462000326919062000ba8565b925050819055504260038190555067016345785d8a0000600254111562000379576040517f6e9a044d00000000000000000000000000000000000000000000000000000000815260040160405180910390fd5b8273ffffffffffffffffffffffffffffffffffffffff166108fc839081150290604051600060405180830381858888f19350505050158015620003c0573d6000803e3d6000fd5b50505050565b600460009054906101000a900473ffffffffffffffffffffffffffffffffffffffff1681565b60008060009054906101000a900473ffffffffffffffffffffffffffffffffffffffff16905090565b3373ffffffffffffffffffffffffffffffffffffffff167f7c6a000d6581009ece38db2bf0a802db87c25d55bdf668f06a962b9c7188477360405160405180910390a2600460009054906101000a900473ffffffffffffffffffffffffffffffffffffffff1673ffffffffffffffffffffffffffffffffffffffff16636a627842326040518263ffffffff1660e01b8152600401620004b5919062000a75565b600060405180830381600087803b158015620004d057600080fd5b505af1158015620004e5573d6000803e3d6000fd5b50505050600560009054906101000a900473ffffffffffffffffffffffffffffffffffffffff1673ffffffffffffffffffffffffffffffffffffffff166340c10f1932600a8462000537919062000c05565b6040518363ffffffff1660e01b81526004016200055692919062000a92565b600060405180830381600087803b1580156200057157600080fd5b505af115801562000586573d6000803e3d6000fd5b5050505050565b600181815481106200059e57600080fd5b906000526020600020016000915054906101000a900473ffffffffffffffffffffffffffffffffffffffff1681565b620005d762000773565b6000303083604051620005ea90620008c4565b620005f89392919062000b16565b604051809103906000f08015801562000615573d6000803e3d6000fd5b5090506001819080600181540180825580915050600190039060005260206000200160009091909190916101000a81548173ffffffffffffffffffffffffffffffffffffffff021916908373ffffffffffffffffffffffffffffffffffffffff1602179055508073ffffffffffffffffffffffffffffffffffffffff167fed94e6f8f334678b3265725f268ecd9032016d6050efeb9e673a561ffbfb0a7660405160405180910390a25050565b620006cc62000773565b600073ffffffffffffffffffffffffffffffffffffffff168173ffffffffffffffffffffffffffffffffffffffff1614156200073f576040517f08c379a0000000000000000000000000000000000000000000000000000000008152600401620007369062000b53565b60405180910390fd5b6200074a81620007f8565b50565b600560009054906101000a900473ffffffffffffffffffffffffffffffffffffffff1681565b6200077d620008bc565b73ffffffffffffffffffffffffffffffffffffffff166200079d620003ec565b73ffffffffffffffffffffffffffffffffffffffff1614620007f6576040517f08c379a0000000000000000000000000000000000000000000000000000000008152600401620007ed9062000b75565b60405180910390fd5b565b60008060009054906101000a900473ffffffffffffffffffffffffffffffffffffffff169050816000806101000a81548173ffffffffffffffffffffffffffffffffffffffff021916908373ffffffffffffffffffffffffffffffffffffffff1602179055508173ffffffffffffffffffffffffffffffffffffffff168173ffffffffffffffffffffffffffffffffffffffff167f8be0079c531659141344cd1fd0a4f28419497f9722a3daafe3b4186f6b6457e060405160405180910390a35050565b600033905090565b6109858062000e5483390190565b600081359050620008e38162000e05565b92915050565b600081359050620008fa8162000e1f565b92915050565b600081359050620009118162000e39565b92915050565b6000602082840312156200092a57600080fd5b60006200093a84828501620008d2565b91505092915050565b600080604083850312156200095757600080fd5b60006200096785828601620008e9565b92505060206200097a8582860162000900565b9150509250929050565b6000602082840312156200099757600080fd5b6000620009a78482850162000900565b91505092915050565b620009bb8162000c51565b82525050565b620009cc8162000c3d565b82525050565b620009dd8162000c8f565b82525050565b620009ee8162000cb7565b82525050565b620009ff8162000cdf565b82525050565b62000a108162000d07565b82525050565b600062000a2560268362000b97565b915062000a328262000d8d565b604082019050919050565b600062000a4c60208362000b97565b915062000a598262000ddc565b602082019050919050565b62000a6f8162000c85565b82525050565b600060208201905062000a8c6000830184620009c1565b92915050565b600060408201905062000aa96000830185620009c1565b62000ab8602083018462000a64565b9392505050565b600060208201905062000ad66000830184620009d2565b92915050565b600060208201905062000af36000830184620009e3565b92915050565b600060208201905062000b106000830184620009f4565b92915050565b600060608201905062000b2d600083018662000a05565b62000b3c6020830185620009b0565b62000b4b604083018462000a64565b949350505050565b6000602082019050818103600083015262000b6e8162000a16565b9050919050565b6000602082019050818103600083015262000b908162000a3d565b9050919050565b600082825260208201905092915050565b600062000bb58262000c85565b915062000bc28362000c85565b9250827fffffffffffffffffffffffffffffffffffffffffffffffffffffffffffffffff0382111562000bfa5762000bf962000d2f565b5b828201905092915050565b600062000c128262000c85565b915062000c1f8362000c85565b92508262000c325762000c3162000d5e565b5b828204905092915050565b600062000c4a8262000c65565b9050919050565b600062000c5e8262000c65565b9050919050565b600073ffffffffffffffffffffffffffffffffffffffff82169050919050565b6000819050919050565b600062000c9c8262000ca3565b9050919050565b600062000cb08262000c65565b9050919050565b600062000cc48262000ccb565b9050919050565b600062000cd88262000c65565b9050919050565b600062000cec8262000cf3565b9050919050565b600062000d008262000c65565b9050919050565b600062000d148262000d1b565b9050919050565b600062000d288262000c65565b9050919050565b7f4e487b7100000000000000000000000000000000000000000000000000000000600052601160045260246000fd5b7f4e487b7100000000000000000000000000000000000000000000000000000000600052601260045260246000fd5b7f4f776e61626c653a206e6577206f776e657220697320746865207a65726f206160008201527f6464726573730000000000000000000000000000000000000000000000000000602082015250565b7f4f776e61626c653a2063616c6c6572206973206e6f7420746865206f776e6572600082015250565b62000e108162000c3d565b811462000e1c57600080fd5b50565b62000e2a8162000c51565b811462000e3657600080fd5b50565b62000e448162000c85565b811462000e5057600080fd5b5056fe608060405234801561001057600080fd5b5060405161098538038061098583398181016040528101906100329190610142565b826000806101000a81548173ffffffffffffffffffffffffffffffffffffffff021916908373ffffffffffffffffffffffffffffffffffffffff16021790555081600360016101000a81548173ffffffffffffffffffffffffffffffffffffffff021916908373ffffffffffffffffffffffffffffffffffffffff1602179055508060018190555032600460006101000a81548173ffffffffffffffffffffffffffffffffffffffff021916908373ffffffffffffffffffffffffffffffffffffffff160217905550505050610236565b600081519050610112816101f1565b92915050565b60008151905061012781610208565b92915050565b60008151905061013c8161021f565b92915050565b60008060006060848603121561015757600080fd5b600061016586828701610118565b935050602061017686828701610103565b92505060406101878682870161012d565b9150509250925092565b600061019c826101c7565b9050919050565b60006101ae826101c7565b9050919050565b60006101c082610191565b9050919050565b600073ffffffffffffffffffffffffffffffffffffffff82169050919050565b6000819050919050565b6101fa816101a3565b811461020557600080fd5b50565b610211816101b5565b811461021c57600080fd5b50565b610228816101e7565b811461023357600080fd5b50565b610740806102456000396000f3fe6080604052600436106100595760003560e01c806356e4bc1f146102db57806361d027b314610306578063a0a1a7d714610331578063b2fa1c9e1461035c578063c35905c614610387578063f887ea40146103b2576102d6565b366102d6576001543460025461006f91906105e5565b1161010357346002600082825461008691906105e5565b925050819055506100956103dd565b600360019054906101000a900473ffffffffffffffffffffffffffffffffffffffff1673ffffffffffffffffffffffffffffffffffffffff166108fc349081150290604051600060405180830381858888f193505050501580156100fd573d6000803e3d6000fd5b506102d4565b60015460025410801561012457506001543460025461012291906105e5565b115b1561024157600060025460015461013b919061063b565b9050346002600082825461014f91906105e5565b9250508190555061015e6103dd565b600360019054906101000a900473ffffffffffffffffffffffffffffffffffffffff1673ffffffffffffffffffffffffffffffffffffffff166108fc829081150290604051600060405180830381858888f193505050501580156101c6573d6000803e3d6000fd5b50600460009054906101000a900473ffffffffffffffffffffffffffffffffffffffff1673ffffffffffffffffffffffffffffffffffffffff166108fc823461020f919061063b565b9081150290604051600060405180830381858888f1935050505015801561023a573d6000803e3d6000fd5b50506102d4565b600154600254106102d357346002600082825461025e91906105e5565b92505081905550600460009054906101000a900473ffffffffffffffffffffffffffffffffffffffff1673ffffffffffffffffffffffffffffffffffffffff166108fc349081150290604051600060405180830381858888f193505050501580156102cd573d6000803e3d6000fd5b506102d4565b5b005b600080fd5b3480156102e757600080fd5b506102f06104ae565b6040516102fd91906105ca565b60405180910390f35b34801561031257600080fd5b5061031b6104b4565b6040516103289190610579565b60405180910390f35b34801561033d57600080fd5b506103466104da565b6040516103539190610579565b60405180910390f35b34801561036857600080fd5b50610371610500565b60405161037e9190610594565b60405180910390f35b34801561039357600080fd5b5061039c610513565b6040516103a991906105ca565b60405180910390f35b3480156103be57600080fd5b506103c7610519565b6040516103d491906105af565b60405180910390f35b600154600254101580156103fe5750600360009054906101000a900460ff16155b156104ac576001600360006101000a81548160ff02191690831515021790555060008054906101000a900473ffffffffffffffffffffffffffffffffffffffff1673ffffffffffffffffffffffffffffffffffffffff1663a103249d6001546040518263ffffffff1660e01b815260040161047991906105ca565b600060405180830381600087803b15801561049357600080fd5b505af11580156104a7573d6000803e3d6000fd5b505050505b565b60025481565b600360019054906101000a900473ffffffffffffffffffffffffffffffffffffffff1681565b600460009054906101000a900473ffffffffffffffffffffffffffffffffffffffff1681565b600360009054906101000a900460ff1681565b60015481565b60008054906101000a900473ffffffffffffffffffffffffffffffffffffffff1681565b6105468161066f565b82525050565b61055581610681565b82525050565b610564816106b7565b82525050565b610573816106ad565b82525050565b600060208201905061058e600083018461053d565b92915050565b60006020820190506105a9600083018461054c565b92915050565b60006020820190506105c4600083018461055b565b92915050565b60006020820190506105df600083018461056a565b92915050565b60006105f0826106ad565b91506105fb836106ad565b9250827fffffffffffffffffffffffffffffffffffffffffffffffffffffffffffffffff038211156106305761062f6106db565b5b828201905092915050565b6000610646826106ad565b9150610651836106ad565b925082821015610664576106636106db565b5b828203905092915050565b600061067a8261068d565b9050919050565b60008115159050919050565b600073ffffffffffffffffffffffffffffffffffffffff82169050919050565b6000819050919050565b60006106c2826106c9565b9050919050565b60006106d48261068d565b9050919050565b7f4e487b7100000000000000000000000000000000000000000000000000000000600052601160045260246000fdfea26469706673582212202a1d67fe2bfa219bf7a49f41c9a09ab9a45734356f87a2aecadfef8766679eb664736f6c63430008040033a2646970667358221220127007ca81a49b63c00c4098e889678f33587e409412771e6b2d938e0702b06364736f6c6343000804003360806040523480156200001157600080fd5b5060405162002a1238038062002a128339818101604052810190620000379190620001e6565b6040518060400160405280600d81526020017f4554482050495a5a41204e4654000000000000000000000000000000000000008152506040518060400160405280600381526020017f505a4100000000000000000000000000000000000000000000000000000000008152508160009080519060200190620000bb9291906200011f565b508060019080519060200190620000d49291906200011f565b50505080600660006101000a81548173ffffffffffffffffffffffffffffffffffffffff021916908373ffffffffffffffffffffffffffffffffffffffff16021790555050620002c5565b8280546200012d9062000246565b90600052602060002090601f0160209004810192826200015157600085556200019d565b82601f106200016c57805160ff19168380011785556200019d565b828001600101855582156200019d579182015b828111156200019c5782518255916020019190600101906200017f565b5b509050620001ac9190620001b0565b5090565b5b80821115620001cb576000816000905550600101620001b1565b5090565b600081519050620001e081620002ab565b92915050565b600060208284031215620001f957600080fd5b60006200020984828501620001cf565b91505092915050565b60006200021f8262000226565b9050919050565b600073ffffffffffffffffffffffffffffffffffffffff82169050919050565b600060028204905060018216806200025f57607f821691505b602082108114156200027657620002756200027c565b5b50919050565b7f4e487b7100000000000000000000000000000000000000000000000000000000600052602260045260246000fd5b620002b68162000212565b8114620002c257600080fd5b50565b61273d80620002d56000396000f3fe608060405234801561001057600080fd5b50600436106100f55760003560e01c80636a62784211610097578063b88d4fde11610066578063b88d4fde14610282578063c87b56dd1461029e578063e985e9c5146102ce578063f887ea40146102fe576100f5565b80636a627842146101fc57806370a082311461021857806395d89b4114610248578063a22cb46514610266576100f5565b8063095ea7b3116100d3578063095ea7b31461017857806323b872dd1461019457806342842e0e146101b05780636352211e146101cc576100f5565b806301ffc9a7146100fa57806306fdde031461012a578063081812fc14610148575b600080fd5b610114600480360381019061010f9190611ba4565b61031c565b6040516101219190611f1e565b60405180910390f35b6101326103fe565b60405161013f9190611f39565b60405180910390f35b610162600480360381019061015d9190611bf6565b610490565b60405161016f9190611eb7565b60405180910390f35b610192600480360381019061018d9190611b68565b6104d6565b005b6101ae60048036038101906101a99190611a62565b6105ee565b005b6101ca60048036038101906101c59190611a62565b61064e565b005b6101e660048036038101906101e19190611bf6565b61066e565b6040516101f39190611eb7565b60405180910390f35b610216600480360381019061021191906119fd565b6106f5565b005b610232600480360381019061022d91906119fd565b6107a6565b60405161023f91906120db565b60405180910390f35b61025061085e565b60405161025d9190611f39565b60405180910390f35b610280600480360381019061027b9190611b2c565b6108f0565b005b61029c60048036038101906102979190611ab1565b610906565b005b6102b860048036038101906102b39190611bf6565b610968565b6040516102c59190611f39565b60405180910390f35b6102e860048036038101906102e39190611a26565b6109d0565b6040516102f59190611f1e565b60405180910390f35b610306610a64565b6040516103139190611eb7565b60405180910390f35b60007f80ac58cd000000000000000000000000000000000000000000000000000000007bffffffffffffffffffffffffffffffffffffffffffffffffffffffff1916827bffffffffffffffffffffffffffffffffffffffffffffffffffffffff191614806103e757507f5b5e139f000000000000000000000000000000000000000000000000000000007bffffffffffffffffffffffffffffffffffffffffffffffffffffffff1916827bffffffffffffffffffffffffffffffffffffffffffffffffffffffff1916145b806103f757506103f682610a8a565b5b9050919050565b60606000805461040d90612245565b80601f016020809104026020016040519081016040528092919081815260200182805461043990612245565b80156104865780601f1061045b57610100808354040283529160200191610486565b820191906000526020600020905b81548152906001019060200180831161046957829003601f168201915b5050505050905090565b600061049b82610af4565b6004600083815260200190815260200160002060009054906101000a900473ffffffffffffffffffffffffffffffffffffffff169050919050565b60006104e18261066e565b90508073ffffffffffffffffffffffffffffffffffffffff168373ffffffffffffffffffffffffffffffffffffffff161415610552576040517f08c379a00000000000000000000000000000000000000000000000000000000081526004016105499061209b565b60405180910390fd5b8073ffffffffffffffffffffffffffffffffffffffff16610571610b3f565b73ffffffffffffffffffffffffffffffffffffffff1614806105a0575061059f8161059a610b3f565b6109d0565b5b6105df576040517f08c379a00000000000000000000000000000000000000000000000000000000081526004016105d6906120bb565b60405180910390fd5b6105e98383610b47565b505050565b6105ff6105f9610b3f565b82610c00565b61063e576040517f08c379a000000000000000000000000000000000000000000000000000000000815260040161063590611f5b565b60405180910390fd5b610649838383610c95565b505050565b61066983838360405180602001604052806000815250610906565b505050565b60008061067a83610f8f565b9050600073ffffffffffffffffffffffffffffffffffffffff168173ffffffffffffffffffffffffffffffffffffffff1614156106ec576040517f08c379a00000000000000000000000000000000000000000000000000000000081526004016106e39061207b565b60405180910390fd5b80915050919050565b600660009054906101000a900473ffffffffffffffffffffffffffffffffffffffff1673ffffffffffffffffffffffffffffffffffffffff163373ffffffffffffffffffffffffffffffffffffffff1614610785576040517f08c379a000000000000000000000000000000000000000000000000000000000815260040161077c90611fdb565b60405180910390fd5b6107a381600760008154610798906122a8565b919050819055610fcc565b50565b60008073ffffffffffffffffffffffffffffffffffffffff168273ffffffffffffffffffffffffffffffffffffffff161415610817576040517f08c379a000000000000000000000000000000000000000000000000000000000815260040161080e9061203b565b60405180910390fd5b600360008373ffffffffffffffffffffffffffffffffffffffff1673ffffffffffffffffffffffffffffffffffffffff168152602001908152602001600020549050919050565b60606001805461086d90612245565b80601f016020809104026020016040519081016040528092919081815260200182805461089990612245565b80156108e65780601f106108bb576101008083540402835291602001916108e6565b820191906000526020600020905b8154815290600101906020018083116108c957829003601f168201915b5050505050905090565b6109026108fb610b3f565b83836111ea565b5050565b610917610911610b3f565b83610c00565b610956576040517f08c379a000000000000000000000000000000000000000000000000000000000815260040161094d90611f5b565b60405180910390fd5b61096284848484611357565b50505050565b606061097382610af4565b600061097d6113b3565b9050600081511161099d57604051806020016040528060008152506109c8565b806109a7846113ca565b6040516020016109b8929190611e93565b6040516020818303038152906040525b915050919050565b6000600560008473ffffffffffffffffffffffffffffffffffffffff1673ffffffffffffffffffffffffffffffffffffffff16815260200190815260200160002060008373ffffffffffffffffffffffffffffffffffffffff1673ffffffffffffffffffffffffffffffffffffffff16815260200190815260200160002060009054906101000a900460ff16905092915050565b600660009054906101000a900473ffffffffffffffffffffffffffffffffffffffff1681565b60007f01ffc9a7000000000000000000000000000000000000000000000000000000007bffffffffffffffffffffffffffffffffffffffffffffffffffffffff1916827bffffffffffffffffffffffffffffffffffffffffffffffffffffffff1916149050919050565b610afd816114ee565b610b3c576040517f08c379a0000000000000000000000000000000000000000000000000000000008152600401610b339061207b565b60405180910390fd5b50565b600033905090565b816004600083815260200190815260200160002060006101000a81548173ffffffffffffffffffffffffffffffffffffffff021916908373ffffffffffffffffffffffffffffffffffffffff160217905550808273ffffffffffffffffffffffffffffffffffffffff16610bba8361066e565b73ffffffffffffffffffffffffffffffffffffffff167f8c5be1e5ebec7d5bd14f71427d1e84f3dd0314c0f7b2291e5b200ac8c7c3b92560405160405180910390a45050565b600080610c0c8361066e565b90508073ffffffffffffffffffffffffffffffffffffffff168473ffffffffffffffffffffffffffffffffffffffff161480610c4e5750610c4d81856109d0565b5b80610c8c57508373ffffffffffffffffffffffffffffffffffffffff16610c7484610490565b73ffffffffffffffffffffffffffffffffffffffff16145b91505092915050565b8273ffffffffffffffffffffffffffffffffffffffff16610cb58261066e565b73ffffffffffffffffffffffffffffffffffffffff1614610d0b576040517f08c379a0000000000000000000000000000000000000000000000000000000008152600401610d0290611f9b565b60405180910390fd5b600073ffffffffffffffffffffffffffffffffffffffff168273ffffffffffffffffffffffffffffffffffffffff161415610d7b576040517f08c379a0000000000000000000000000000000000000000000000000000000008152600401610d7290611ffb565b60405180910390fd5b610d88838383600161152f565b8273ffffffffffffffffffffffffffffffffffffffff16610da88261066e565b73ffffffffffffffffffffffffffffffffffffffff1614610dfe576040517f08c379a0000000000000000000000000000000000000000000000000000000008152600401610df590611f9b565b60405180910390fd5b6004600082815260200190815260200160002060006101000a81549073ffffffffffffffffffffffffffffffffffffffff02191690556001600360008573ffffffffffffffffffffffffffffffffffffffff1673ffffffffffffffffffffffffffffffffffffffff168152602001908152602001600020600082825403925050819055506001600360008473ffffffffffffffffffffffffffffffffffffffff1673ffffffffffffffffffffffffffffffffffffffff16815260200190815260200160002060008282540192505081905550816002600083815260200190815260200160002060006101000a81548173ffffffffffffffffffffffffffffffffffffffff021916908373ffffffffffffffffffffffffffffffffffffffff160217905550808273ffffffffffffffffffffffffffffffffffffffff168473ffffffffffffffffffffffffffffffffffffffff167fddf252ad1be2c89b69c2b068fc378daa952ba7f163c4a11628f55a4df523b3ef60405160405180910390a4610f8a8383836001611535565b505050565b60006002600083815260200190815260200160002060009054906101000a900473ffffffffffffffffffffffffffffffffffffffff169050919050565b600073ffffffffffffffffffffffffffffffffffffffff168273ffffffffffffffffffffffffffffffffffffffff16141561103c576040517f08c379a00000000000000000000000000000000000000000000000000000000081526004016110339061205b565b60405180910390fd5b611045816114ee565b15611085576040517f08c379a000000000000000000000000000000000000000000000000000000000815260040161107c90611fbb565b60405180910390fd5b61109360008383600161152f565b61109c816114ee565b156110dc576040517f08c379a00000000000000000000000000000000000000000000000000000000081526004016110d390611fbb565b60405180910390fd5b6001600360008473ffffffffffffffffffffffffffffffffffffffff1673ffffffffffffffffffffffffffffffffffffffff16815260200190815260200160002060008282540192505081905550816002600083815260200190815260200160002060006101000a81548173ffffffffffffffffffffffffffffffffffffffff021916908373ffffffffffffffffffffffffffffffffffffffff160217905550808273ffffffffffffffffffffffffffffffffffffffff16600073ffffffffffffffffffffffffffffffffffffffff167fddf252ad1be2c89b69c2b068fc378daa952ba7f163c4a11628f55a4df523b3ef60405160405180910390a46111e6600083836001611535565b5050565b8173ffffffffffffffffffffffffffffffffffffffff168373ffffffffffffffffffffffffffffffffffffffff161415611259576040517f08c379a00000000000000000000000000000000000000000000000000000000081526004016112509061201b565b60405180910390fd5b80600560008573ffffffffffffffffffffffffffffffffffffffff1673ffffffffffffffffffffffffffffffffffffffff16815260200190815260200160002060008473ffffffffffffffffffffffffffffffffffffffff1673ffffffffffffffffffffffffffffffffffffffff16815260200190815260200160002060006101000a81548160ff0219169083151502179055508173ffffffffffffffffffffffffffffffffffffffff168373ffffffffffffffffffffffffffffffffffffffff167f17307eab39ab6107e8899845ad3d59bd9653f200f220920489ca2b5937696c318360405161134a9190611f1e565b60405180910390a3505050565b611362848484610c95565b61136e8484848461153b565b6113ad576040517f08c379a00000000000000000000000000000000000000000000000000000000081526004016113a490611f7b565b60405180910390fd5b50505050565b606060405180602001604052806000815250905090565b6060600060016113d9846116d2565b01905060008167ffffffffffffffff81111561141e577f4e487b7100000000000000000000000000000000000000000000000000000000600052604160045260246000fd5b6040519080825280601f01601f1916602001820160405280156114505781602001600182028036833780820191505090505b509050600082602001820190505b6001156114e3578080600190039150507f3031323334353637383961626364656600000000000000000000000000000000600a86061a8153600a85816114cd577f4e487b7100000000000000000000000000000000000000000000000000000000600052601260045260246000fd5b04945060008514156114de576114e3565b61145e565b819350505050919050565b60008073ffffffffffffffffffffffffffffffffffffffff1661151083610f8f565b73ffffffffffffffffffffffffffffffffffffffff1614159050919050565b50505050565b50505050565b600061155c8473ffffffffffffffffffffffffffffffffffffffff16611909565b156116c5578373ffffffffffffffffffffffffffffffffffffffff1663150b7a02611585610b3f565b8786866040518563ffffffff1660e01b81526004016115a79493929190611ed2565b602060405180830381600087803b1580156115c157600080fd5b505af19250505080156115f257506040513d601f19601f820116820180604052508101906115ef9190611bcd565b60015b611675573d8060008114611622576040519150601f19603f3d011682016040523d82523d6000602084013e611627565b606091505b5060008151141561166d576040517f08c379a000000000000000000000000000000000000000000000000000000000815260040161166490611f7b565b60405180910390fd5b805181602001fd5b63150b7a0260e01b7bffffffffffffffffffffffffffffffffffffffffffffffffffffffff1916817bffffffffffffffffffffffffffffffffffffffffffffffffffffffff1916149150506116ca565b600190505b949350505050565b600080600090507a184f03e93ff9f4daa797ed6e38ed64bf6a1f0100000000000000008310611756577a184f03e93ff9f4daa797ed6e38ed64bf6a1f010000000000000000838161174c577f4e487b7100000000000000000000000000000000000000000000000000000000600052601260045260246000fd5b0492506040810190505b6d04ee2d6d415b85acef810000000083106117b9576d04ee2d6d415b85acef810000000083816117af577f4e487b7100000000000000000000000000000000000000000000000000000000600052601260045260246000fd5b0492506020810190505b662386f26fc10000831061180e57662386f26fc100008381611804577f4e487b7100000000000000000000000000000000000000000000000000000000600052601260045260246000fd5b0492506010810190505b6305f5e100831061185d576305f5e1008381611853577f4e487b7100000000000000000000000000000000000000000000000000000000600052601260045260246000fd5b0492506008810190505b61271083106118a857612710838161189e577f4e487b7100000000000000000000000000000000000000000000000000000000600052601260045260246000fd5b0492506004810190505b606483106118f157606483816118e7577f4e487b7100000000000000000000000000000000000000000000000000000000600052601260045260246000fd5b0492506002810190505b600a8310611900576001810190505b80915050919050565b6000808273ffffffffffffffffffffffffffffffffffffffff163b119050919050565b600061193f61193a8461211b565b6120f6565b90508281526020810184848401111561195757600080fd5b611962848285612203565b509392505050565b600081359050611979816126ab565b92915050565b60008135905061198e816126c2565b92915050565b6000813590506119a3816126d9565b92915050565b6000815190506119b8816126d9565b92915050565b600082601f8301126119cf57600080fd5b81356119df84826020860161192c565b91505092915050565b6000813590506119f7816126f0565b92915050565b600060208284031215611a0f57600080fd5b6000611a1d8482850161196a565b91505092915050565b60008060408385031215611a3957600080fd5b6000611a478582860161196a565b9250506020611a588582860161196a565b9150509250929050565b600080600060608486031215611a7757600080fd5b6000611a858682870161196a565b9350506020611a968682870161196a565b9250506040611aa7868287016119e8565b9150509250925092565b60008060008060808587031215611ac757600080fd5b6000611ad58782880161196a565b9450506020611ae68782880161196a565b9350506040611af7878288016119e8565b925050606085013567ffffffffffffffff811115611b1457600080fd5b611b20878288016119be565b91505092959194509250565b60008060408385031215611b3f57600080fd5b6000611b4d8582860161196a565b9250506020611b5e8582860161197f565b9150509250929050565b60008060408385031215611b7b57600080fd5b6000611b898582860161196a565b9250506020611b9a858286016119e8565b9150509250929050565b600060208284031215611bb657600080fd5b6000611bc484828501611994565b91505092915050565b600060208284031215611bdf57600080fd5b6000611bed848285016119a9565b91505092915050565b600060208284031215611c0857600080fd5b6000611c16848285016119e8565b91505092915050565b611c288161218f565b82525050565b611c37816121a1565b82525050565b6000611c488261214c565b611c528185612162565b9350611c62818560208601612212565b611c6b8161237e565b840191505092915050565b6000611c8182612157565b611c8b8185612173565b9350611c9b818560208601612212565b611ca48161237e565b840191505092915050565b6000611cba82612157565b611cc48185612184565b9350611cd4818560208601612212565b80840191505092915050565b6000611ced602d83612173565b9150611cf88261238f565b604082019050919050565b6000611d10603283612173565b9150611d1b826123de565b604082019050919050565b6000611d33602583612173565b9150611d3e8261242d565b604082019050919050565b6000611d56601c83612173565b9150611d618261247c565b602082019050919050565b6000611d79602683612173565b9150611d84826124a5565b604082019050919050565b6000611d9c602483612173565b9150611da7826124f4565b604082019050919050565b6000611dbf601983612173565b9150611dca82612543565b602082019050919050565b6000611de2602983612173565b9150611ded8261256c565b604082019050919050565b6000611e05602083612173565b9150611e10826125bb565b602082019050919050565b6000611e28601883612173565b9150611e33826125e4565b602082019050919050565b6000611e4b602183612173565b9150611e568261260d565b604082019050919050565b6000611e6e603d83612173565b9150611e798261265c565b604082019050919050565b611e8d816121f9565b82525050565b6000611e9f8285611caf565b9150611eab8284611caf565b91508190509392505050565b6000602082019050611ecc6000830184611c1f565b92915050565b6000608082019050611ee76000830187611c1f565b611ef46020830186611c1f565b611f016040830185611e84565b8181036060830152611f138184611c3d565b905095945050505050565b6000602082019050611f336000830184611c2e565b92915050565b60006020820190508181036000830152611f538184611c76565b905092915050565b60006020820190508181036000830152611f7481611ce0565b9050919050565b60006020820190508181036000830152611f9481611d03565b9050919050565b60006020820190508181036000830152611fb481611d26565b9050919050565b60006020820190508181036000830152611fd481611d49565b9050919050565b60006020820190508181036000830152611ff481611d6c565b9050919050565b6000602082019050818103600083015261201481611d8f565b9050919050565b6000602082019050818103600083015261203481611db2565b9050919050565b6000602082019050818103600083015261205481611dd5565b9050919050565b6000602082019050818103600083015261207481611df8565b9050919050565b6000602082019050818103600083015261209481611e1b565b9050919050565b600060208201905081810360008301526120b481611e3e565b9050919050565b600060208201905081810360008301526120d481611e61565b9050919050565b60006020820190506120f06000830184611e84565b92915050565b6000612100612111565b905061210c8282612277565b919050565b6000604051905090565b600067ffffffffffffffff8211156121365761213561234f565b5b61213f8261237e565b9050602081019050919050565b600081519050919050565b600081519050919050565b600082825260208201905092915050565b600082825260208201905092915050565b600081905092915050565b600061219a826121d9565b9050919050565b60008115159050919050565b60007fffffffff0000000000000000000000000000000000000000000000000000000082169050919050565b600073ffffffffffffffffffffffffffffffffffffffff82169050919050565b6000819050919050565b82818337600083830152505050565b60005b83811015612230578082015181840152602081019050612215565b8381111561223f576000848401525b50505050565b6000600282049050600182168061225d57607f821691505b6020821081141561227157612270612320565b5b50919050565b6122808261237e565b810181811067ffffffffffffffff8211171561229f5761229e61234f565b5b80604052505050565b60006122b3826121f9565b91507fffffffffffffffffffffffffffffffffffffffffffffffffffffffffffffffff8214156122e6576122e56122f1565b5b600182019050919050565b7f4e487b7100000000000000000000000000000000000000000000000000000000600052601160045260246000fd5b7f4e487b7100000000000000000000000000000000000000000000000000000000600052602260045260246000fd5b7f4e487b7100000000000000000000000000000000000000000000000000000000600052604160045260246000fd5b6000601f19601f8301169050919050565b7f4552433732313a2063616c6c6572206973206e6f7420746f6b656e206f776e6560008201527f72206f7220617070726f76656400000000000000000000000000000000000000602082015250565b7f4552433732313a207472616e7366657220746f206e6f6e20455243373231526560008201527f63656976657220696d706c656d656e7465720000000000000000000000000000602082015250565b7f4552433732313a207472616e736665722066726f6d20696e636f72726563742060008201527f6f776e6572000000000000000000000000000000000000000000000000000000602082015250565b7f4552433732313a20746f6b656e20616c7265616479206d696e74656400000000600082015250565b7f6f6e6c792074686520526f757465722063616e2063616c6c207468697320667560008201527f6e6374696f6e0000000000000000000000000000000000000000000000000000602082015250565b7f4552433732313a207472616e7366657220746f20746865207a65726f2061646460008201527f7265737300000000000000000000000000000000000000000000000000000000602082015250565b7f4552433732313a20617070726f766520746f2063616c6c657200000000000000600082015250565b7f4552433732313a2061646472657373207a65726f206973206e6f74206120766160008201527f6c6964206f776e65720000000000000000000000000000000000000000000000602082015250565b7f4552433732313a206d696e7420746f20746865207a65726f2061646472657373600082015250565b7f4552433732313a20696e76616c696420746f6b656e2049440000000000000000600082015250565b7f4552433732313a20617070726f76616c20746f2063757272656e74206f776e6560008201527f7200000000000000000000000000000000000000000000000000000000000000602082015250565b7f4552433732313a20617070726f76652063616c6c6572206973206e6f7420746f60008201527f6b656e206f776e6572206f7220617070726f76656420666f7220616c6c000000602082015250565b6126b48161218f565b81146126bf57600080fd5b50565b6126cb816121a1565b81146126d657600080fd5b50565b6126e2816121ad565b81146126ed57600080fd5b50565b6126f9816121f9565b811461270457600080fd5b5056fea2646970667358221220a9186d51961437dd905393993161b959e1b63409f6088d41ca42215169a4962f64736f6c6343000804003360806040523480156200001157600080fd5b50604051620018c2380380620018c28339818101604052810190620000379190620001e6565b6040518060400160405280600a81526020017f50697a7a61546f6b656e000000000000000000000000000000000000000000008152506040518060400160405280600481526020017f505a4154000000000000000000000000000000000000000000000000000000008152508160039080519060200190620000bb9291906200011f565b508060049080519060200190620000d49291906200011f565b50505080600560006101000a81548173ffffffffffffffffffffffffffffffffffffffff021916908373ffffffffffffffffffffffffffffffffffffffff16021790555050620002c5565b8280546200012d9062000246565b90600052602060002090601f0160209004810192826200015157600085556200019d565b82601f106200016c57805160ff19168380011785556200019d565b828001600101855582156200019d579182015b828111156200019c5782518255916020019190600101906200017f565b5b509050620001ac9190620001b0565b5090565b5b80821115620001cb576000816000905550600101620001b1565b5090565b600081519050620001e081620002ab565b92915050565b600060208284031215620001f957600080fd5b60006200020984828501620001cf565b91505092915050565b60006200021f8262000226565b9050919050565b600073ffffffffffffffffffffffffffffffffffffffff82169050919050565b600060028204905060018216806200025f57607f821691505b602082108114156200027657620002756200027c565b5b50919050565b7f4e487b7100000000000000000000000000000000000000000000000000000000600052602260045260246000fd5b620002b68162000212565b8114620002c257600080fd5b50565b6115ed80620002d56000396000f3fe608060405234801561001057600080fd5b50600436106100cf5760003560e01c806340c10f191161008c578063a457c2d711610066578063a457c2d714610228578063a9059cbb14610258578063dd62ed3e14610288578063f887ea40146102b8576100cf565b806340c10f19146101be57806370a08231146101da57806395d89b411461020a576100cf565b806306fdde03146100d4578063095ea7b3146100f257806318160ddd1461012257806323b872dd14610140578063313ce56714610170578063395093511461018e575b600080fd5b6100dc6102d6565b6040516100e99190610ffb565b60405180910390f35b61010c60048036038101906101079190610dd9565b610368565b6040516101199190610fe0565b60405180910390f35b61012a61038b565b604051610137919061113d565b60405180910390f35b61015a60048036038101906101559190610d8a565b610395565b6040516101679190610fe0565b60405180910390f35b6101786103c4565b6040516101859190611158565b60405180910390f35b6101a860048036038101906101a39190610dd9565b6103cd565b6040516101b59190610fe0565b60405180910390f35b6101d860048036038101906101d39190610dd9565b610404565b005b6101f460048036038101906101ef9190610d25565b6104a2565b604051610201919061113d565b60405180910390f35b6102126104ea565b60405161021f9190610ffb565b60405180910390f35b610242600480360381019061023d9190610dd9565b61057c565b60405161024f9190610fe0565b60405180910390f35b610272600480360381019061026d9190610dd9565b6105f3565b60405161027f9190610fe0565b60405180910390f35b6102a2600480360381019061029d9190610d4e565b610616565b6040516102af919061113d565b60405180910390f35b6102c061069d565b6040516102cd9190610fc5565b60405180910390f35b6060600380546102e59061126d565b80601f01602080910402602001604051908101604052809291908181526020018280546103119061126d565b801561035e5780601f106103335761010080835404028352916020019161035e565b820191906000526020600020905b81548152906001019060200180831161034157829003601f168201915b5050505050905090565b6000806103736106c3565b90506103808185856106cb565b600191505092915050565b6000600254905090565b6000806103a06106c3565b90506103ad858285610896565b6103b8858585610922565b60019150509392505050565b60006012905090565b6000806103d86106c3565b90506103f98185856103ea8589610616565b6103f4919061118f565b6106cb565b600191505092915050565b600560009054906101000a900473ffffffffffffffffffffffffffffffffffffffff1673ffffffffffffffffffffffffffffffffffffffff163373ffffffffffffffffffffffffffffffffffffffff1614610494576040517f08c379a000000000000000000000000000000000000000000000000000000000815260040161048b9061107d565b60405180910390fd5b61049e8282610b9a565b5050565b60008060008373ffffffffffffffffffffffffffffffffffffffff1673ffffffffffffffffffffffffffffffffffffffff168152602001908152602001600020549050919050565b6060600480546104f99061126d565b80601f01602080910402602001604051908101604052809291908181526020018280546105259061126d565b80156105725780601f1061054757610100808354040283529160200191610572565b820191906000526020600020905b81548152906001019060200180831161055557829003601f168201915b5050505050905090565b6000806105876106c3565b905060006105958286610616565b9050838110156105da576040517f08c379a00000000000000000000000000000000000000000000000000000000081526004016105d1906110fd565b60405180910390fd5b6105e782868684036106cb565b60019250505092915050565b6000806105fe6106c3565b905061060b818585610922565b600191505092915050565b6000600160008473ffffffffffffffffffffffffffffffffffffffff1673ffffffffffffffffffffffffffffffffffffffff16815260200190815260200160002060008373ffffffffffffffffffffffffffffffffffffffff1673ffffffffffffffffffffffffffffffffffffffff16815260200190815260200160002054905092915050565b600560009054906101000a900473ffffffffffffffffffffffffffffffffffffffff1681565b600033905090565b600073ffffffffffffffffffffffffffffffffffffffff168373ffffffffffffffffffffffffffffffffffffffff16141561073b576040517f08c379a0000000000000000000000000000000000000000000000000000000008152600401610732906110dd565b60405180910390fd5b600073ffffffffffffffffffffffffffffffffffffffff168273ffffffffffffffffffffffffffffffffffffffff1614156107ab576040517f08c379a00000000000000000000000000000000000000000000000000000000081526004016107a29061103d565b60405180910390fd5b80600160008573ffffffffffffffffffffffffffffffffffffffff1673ffffffffffffffffffffffffffffffffffffffff16815260200190815260200160002060008473ffffffffffffffffffffffffffffffffffffffff1673ffffffffffffffffffffffffffffffffffffffff168152602001908152602001600020819055508173ffffffffffffffffffffffffffffffffffffffff168373ffffffffffffffffffffffffffffffffffffffff167f8c5be1e5ebec7d5bd14f71427d1e84f3dd0314c0f7b2291e5b200ac8c7c3b92583604051610889919061113d565b60405180910390a3505050565b60006108a28484610616565b90507fffffffffffffffffffffffffffffffffffffffffffffffffffffffffffffffff811461091c578181101561090e576040517f08c379a00000000000000000000000000000000000000000000000000000000081526004016109059061105d565b60405180910390fd5b61091b84848484036106cb565b5b50505050565b600073ffffffffffffffffffffffffffffffffffffffff168373ffffffffffffffffffffffffffffffffffffffff161415610992576040517f08c379a0000000000000000000000000000000000000000000000000000000008152600401610989906110bd565b60405180910390fd5b600073ffffffffffffffffffffffffffffffffffffffff168273ffffffffffffffffffffffffffffffffffffffff161415610a02576040517f08c379a00000000000000000000000000000000000000000000000000000000081526004016109f99061101d565b60405180910390fd5b610a0d838383610cf1565b60008060008573ffffffffffffffffffffffffffffffffffffffff1673ffffffffffffffffffffffffffffffffffffffff16815260200190815260200160002054905081811015610a93576040517f08c379a0000000000000000000000000000000000000000000000000000000008152600401610a8a9061109d565b60405180910390fd5b8181036000808673ffffffffffffffffffffffffffffffffffffffff1673ffffffffffffffffffffffffffffffffffffffff16815260200190815260200160002081905550816000808573ffffffffffffffffffffffffffffffffffffffff1673ffffffffffffffffffffffffffffffffffffffff168152602001908152602001600020600082825401925050819055508273ffffffffffffffffffffffffffffffffffffffff168473ffffffffffffffffffffffffffffffffffffffff167fddf252ad1be2c89b69c2b068fc378daa952ba7f163c4a11628f55a4df523b3ef84604051610b81919061113d565b60405180910390a3610b94848484610cf6565b50505050565b600073ffffffffffffffffffffffffffffffffffffffff168273ffffffffffffffffffffffffffffffffffffffff161415610c0a576040517f08c379a0000000000000000000000000000000000000000000000000000000008152600401610c019061111d565b60405180910390fd5b610c1660008383610cf1565b8060026000828254610c28919061118f565b92505081905550806000808473ffffffffffffffffffffffffffffffffffffffff1673ffffffffffffffffffffffffffffffffffffffff168152602001908152602001600020600082825401925050819055508173ffffffffffffffffffffffffffffffffffffffff16600073ffffffffffffffffffffffffffffffffffffffff167fddf252ad1be2c89b69c2b068fc378daa952ba7f163c4a11628f55a4df523b3ef83604051610cd9919061113d565b60405180910390a3610ced60008383610cf6565b5050565b505050565b505050565b600081359050610d0a81611589565b92915050565b600081359050610d1f816115a0565b92915050565b600060208284031215610d3757600080fd5b6000610d4584828501610cfb565b91505092915050565b60008060408385031215610d6157600080fd5b6000610d6f85828601610cfb565b9250506020610d8085828601610cfb565b9150509250929050565b600080600060608486031215610d9f57600080fd5b6000610dad86828701610cfb565b9350506020610dbe86828701610cfb565b9250506040610dcf86828701610d10565b9150509250925092565b60008060408385031215610dec57600080fd5b6000610dfa85828601610cfb565b9250506020610e0b85828601610d10565b9150509250929050565b610e1e816111e5565b82525050565b610e2d816111f7565b82525050565b6000610e3e82611173565b610e48818561117e565b9350610e5881856020860161123a565b610e61816112fd565b840191505092915050565b6000610e7960238361117e565b9150610e848261130e565b604082019050919050565b6000610e9c60228361117e565b9150610ea78261135d565b604082019050919050565b6000610ebf601d8361117e565b9150610eca826113ac565b602082019050919050565b6000610ee260268361117e565b9150610eed826113d5565b604082019050919050565b6000610f0560268361117e565b9150610f1082611424565b604082019050919050565b6000610f2860258361117e565b9150610f3382611473565b604082019050919050565b6000610f4b60248361117e565b9150610f56826114c2565b604082019050919050565b6000610f6e60258361117e565b9150610f7982611511565b604082019050919050565b6000610f91601f8361117e565b9150610f9c82611560565b602082019050919050565b610fb081611223565b82525050565b610fbf8161122d565b82525050565b6000602082019050610fda6000830184610e15565b92915050565b6000602082019050610ff56000830184610e24565b92915050565b600060208201905081810360008301526110158184610e33565b905092915050565b6000602082019050818103600083015261103681610e6c565b9050919050565b6000602082019050818103600083015261105681610e8f565b9050919050565b6000602082019050818103600083015261107681610eb2565b9050919050565b6000602082019050818103600083015261109681610ed5565b9050919050565b600060208201905081810360008301526110b681610ef8565b9050919050565b600060208201905081810360008301526110d681610f1b565b9050919050565b600060208201905081810360008301526110f681610f3e565b9050919050565b6000602082019050818103600083015261111681610f61565b9050919050565b6000602082019050818103600083015261113681610f84565b9050919050565b60006020820190506111526000830184610fa7565b92915050565b600060208201905061116d6000830184610fb6565b92915050565b600081519050919050565b600082825260208201905092915050565b600061119a82611223565b91506111a583611223565b9250827fffffffffffffffffffffffffffffffffffffffffffffffffffffffffffffffff038211156111da576111d961129f565b5b828201905092915050565b60006111f082611203565b9050919050565b60008115159050919050565b600073ffffffffffffffffffffffffffffffffffffffff82169050919050565b6000819050919050565b600060ff82169050919050565b60005b8381101561125857808201518184015260208101905061123d565b83811115611267576000848401525b50505050565b6000600282049050600182168061128557607f821691505b60208210811415611299576112986112ce565b5b50919050565b7f4e487b7100000000000000000000000000000000000000000000000000000000600052601160045260246000fd5b7f4e487b7100000000000000000000000000000000000000000000000000000000600052602260045260246000fd5b6000601f19601f8301169050919050565b7f45524332303a207472616e7366657220746f20746865207a65726f206164647260008201527f6573730000000000000000000000000000000000000000000000000000000000602082015250565b7f45524332303a20617070726f766520746f20746865207a65726f20616464726560008201527f7373000000000000000000000000000000000000000000000000000000000000602082015250565b7f45524332303a20696e73756666696369656e7420616c6c6f77616e6365000000600082015250565b7f6f6e6c792074686520526f757465722063616e2063616c6c207468697320667560008201527f6e6374696f6e0000000000000000000000000000000000000000000000000000602082015250565b7f45524332303a207472616e7366657220616d6f756e742065786365656473206260008201527f616c616e63650000000000000000000000000000000000000000000000000000602082015250565b7f45524332303a207472616e736665722066726f6d20746865207a65726f20616460008201527f6472657373000000000000000000000000000000000000000000000000000000602082015250565b7f45524332303a20617070726f76652066726f6d20746865207a65726f2061646460008201527f7265737300000000000000000000000000000000000000000000000000000000602082015250565b7f45524332303a2064656372656173656420616c6c6f77616e63652062656c6f7760008201527f207a65726f000000000000000000000000000000000000000000000000000000602082015250565b7f45524332303a206d696e7420746f20746865207a65726f206164647265737300600082015250565b611592816111e5565b811461159d57600080fd5b50565b6115a981611223565b81146115b457600080fd5b5056fea2646970667358221220b9ff74c3eeae22810ff7b132b5f0592cf8e667288e530461eb85d2920e471a0e64736f6c63430008040033",
  "devdoc": {
    "author": "Carson Case (carsonpcase@gmail.com)",
    "details": "Router contract to create Order contracts that allow users to pay using only a simple eth TX. The Order contract calls back to emmit events signififying order completion",
    "kind": "dev",
    "methods": {
      "constructor": {
        "details": "set the owner"
      },
      "issueRefund(address,uint256)": {
        "details": "issueRefund contract to refund a user a certain amount",
        "params": {
          "_amount": "to refund",
          "_receiver": "to get ETH refund"
        }
      },
      "newOrder(uint256)": {
        "details": "newOrder function to create an order contract at a certain ETH price. Emits event on creation",
        "params": {
          "_price": "in ETH to require a user pays before completion"
        }
      },
      "onPaymentCallback(uint256)": {
        "details": "onPaymentCallback to handle when a payment is made. This way the backend/frontend only needs to listen to   this router instead of each and every Order contract created"
      },
      "owner()": {
        "details": "Returns the address of the current owner."
      },
      "renounceOwnership()": {
        "details": "Leaves the contract without owner. It will not be possible to call `onlyOwner` functions anymore. Can only be called by the current owner. NOTE: Renouncing ownership will leave the contract without an owner, thereby removing any functionality that is only available to the owner."
      },
      "takeFunds(uint256)": {
        "details": "takeFunds for owner to take funds out of the Router if acting as treasury",
        "params": {
          "am": "to remove"
        }
      },
      "transferOwnership(address)": {
        "details": "Transfers ownership of the contract to a new account (`newOwner`). Can only be called by the current owner."
      }
    },
    "title": "Router",
    "version": 1
  },
  "userdoc": {
    "kind": "user",
    "methods": {},
    "version": 1
  },
  "storageLayout": {
    "storage": [
      {
        "astId": 7,
        "contract": "contracts/Router.sol:Router",
        "label": "_owner",
        "offset": 0,
        "slot": "0",
        "type": "t_address"
      },
      {
        "astId": 3627,
        "contract": "contracts/Router.sol:Router",
        "label": "orders",
        "offset": 0,
        "slot": "1",
        "type": "t_array(t_contract(IOrder)3324)dyn_storage"
      },
      {
        "astId": 3629,
        "contract": "contracts/Router.sol:Router",
        "label": "totalRefundsToday",
        "offset": 0,
        "slot": "2",
        "type": "t_uint256"
      },
      {
        "astId": 3631,
        "contract": "contracts/Router.sol:Router",
        "label": "lastRefund",
        "offset": 0,
        "slot": "3",
        "type": "t_uint256"
      },
      {
        "astId": 3637,
        "contract": "contracts/Router.sol:Router",
        "label": "pizzaNFT",
        "offset": 0,
        "slot": "4",
        "type": "t_contract(IPizzaNFT)3513"
      },
      {
        "astId": 3640,
        "contract": "contracts/Router.sol:Router",
        "label": "pizzaToken",
        "offset": 0,
        "slot": "5",
        "type": "t_contract(IPizzaToken)3568"
      }
    ],
    "types": {
      "t_address": {
        "encoding": "inplace",
        "label": "address",
        "numberOfBytes": "20"
      },
      "t_array(t_contract(IOrder)3324)dyn_storage": {
        "base": "t_contract(IOrder)3324",
        "encoding": "dynamic_array",
        "label": "contract IOrder[]",
        "numberOfBytes": "32"
      },
      "t_contract(IOrder)3324": {
        "encoding": "inplace",
        "label": "contract IOrder",
        "numberOfBytes": "20"
      },
      "t_contract(IPizzaNFT)3513": {
        "encoding": "inplace",
        "label": "contract IPizzaNFT",
        "numberOfBytes": "20"
      },
      "t_contract(IPizzaToken)3568": {
        "encoding": "inplace",
        "label": "contract IPizzaToken",
        "numberOfBytes": "20"
      },
      "t_uint256": {
        "encoding": "inplace",
        "label": "uint256",
        "numberOfBytes": "32"
      }
    }
  }
}