{
  "address": "0x5FbDB2315678afecb367f032d93F642f64180aa3",
  "abi": [
    {
      "inputs": [],
      "stateMutability": "nonpayable",
      "type": "constructor"
    },
    {
      "inputs": [],
      "name": "RefundLimitReached",
      "type": "error"
    },
    {
      "anonymous": false,
      "inputs": [
        {
          "indexed": true,
          "internalType": "address",
          "name": "orderAddress",
          "type": "address"
        }
      ],
      "name": "OrderCreated",
      "type": "event"
    },
    {
      "anonymous": false,
      "inputs": [
        {
          "indexed": true,
          "internalType": "address",
          "name": "sender",
          "type": "address"
        }
      ],
      "name": "Received",
      "type": "event"
    },
    {
      "inputs": [
        {
          "internalType": "address payable",
          "name": "_receiver",
          "type": "address"
        },
        {
          "internalType": "uint256",
          "name": "_amount",
          "type": "uint256"
        }
      ],
      "name": "issueRefund",
      "outputs": [],
      "stateMutability": "nonpayable",
      "type": "function"
    },
    {
      "inputs": [],
      "name": "newOrder",
      "outputs": [],
      "stateMutability": "nonpayable",
      "type": "function"
    },
    {
      "inputs": [],
      "name": "onPaymentCallback",
      "outputs": [],
      "stateMutability": "nonpayable",
      "type": "function"
    },
    {
      "inputs": [
        {
          "internalType": "uint256",
          "name": "",
          "type": "uint256"
        }
      ],
      "name": "orders",
      "outputs": [
        {
          "internalType": "contract IOrder",
          "name": "",
          "type": "address"
        }
      ],
      "stateMutability": "view",
      "type": "function"
    },
    {
      "inputs": [],
      "name": "owner",
      "outputs": [
        {
          "internalType": "address",
          "name": "",
          "type": "address"
        }
      ],
      "stateMutability": "view",
      "type": "function"
    },
    {
      "inputs": [
        {
          "internalType": "uint256",
          "name": "am",
          "type": "uint256"
        }
      ],
      "name": "takeFunds",
      "outputs": [],
      "stateMutability": "nonpayable",
      "type": "function"
    },
    {
      "stateMutability": "payable",
      "type": "receive"
    }
  ],
  "transactionHash": "0xb6b7035641c07a1d9917968251fd5af9c3e6b4a5d5601f9dc8091c3864c02439",
  "args": [],
  "numDeployments": 1,
  "solcInputHash": "e93a6eb78ddb12130fc9d608d5fb9f3b",
  "bytecode": "0x608060405234801561001057600080fd5b50336000806101000a81548173ffffffffffffffffffffffffffffffffffffffff021916908373ffffffffffffffffffffffffffffffffffffffff160217905550610e0e806100606000396000f3fe6080604052600436106100595760003560e01c806306b0fcb3146100655780636b527c0c1461007c578063738005aa146100a55780638da5cb5b146100ce57806397858c29146100f9578063a85c38ef1461011057610060565b3661006057005b600080fd5b34801561007157600080fd5b5061007a61014d565b005b34801561008857600080fd5b506100a3600480360381019061009e9190610608565b6102c1565b005b3480156100b157600080fd5b506100cc60048036038101906100c791906105cc565b610399565b005b3480156100da57600080fd5b506100e36104ed565b6040516100f0919061069f565b60405180910390f35b34801561010557600080fd5b5061010e610511565b005b34801561011c57600080fd5b5061013760048036038101906101329190610608565b610556565b60405161014491906106ba565b60405180910390f35b60008054906101000a900473ffffffffffffffffffffffffffffffffffffffff1673ffffffffffffffffffffffffffffffffffffffff163373ffffffffffffffffffffffffffffffffffffffff16146101db576040517f08c379a00000000000000000000000000000000000000000000000000000000081526004016101d29061070c565b60405180910390fd5b6000303060006040516101ed90610595565b6101f9939291906106d5565b604051809103906000f080158015610215573d6000803e3d6000fd5b5090506001819080600181540180825580915050600190039060005260206000200160009091909190916101000a81548173ffffffffffffffffffffffffffffffffffffffff021916908373ffffffffffffffffffffffffffffffffffffffff1602179055508073ffffffffffffffffffffffffffffffffffffffff167fed94e6f8f334678b3265725f268ecd9032016d6050efeb9e673a561ffbfb0a7660405160405180910390a250565b60008054906101000a900473ffffffffffffffffffffffffffffffffffffffff1673ffffffffffffffffffffffffffffffffffffffff163373ffffffffffffffffffffffffffffffffffffffff161461034f576040517f08c379a00000000000000000000000000000000000000000000000000000000081526004016103469061070c565b60405180910390fd5b3373ffffffffffffffffffffffffffffffffffffffff166108fc829081150290604051600060405180830381858888f19350505050158015610395573d6000803e3d6000fd5b5050565b60008054906101000a900473ffffffffffffffffffffffffffffffffffffffff1673ffffffffffffffffffffffffffffffffffffffff163373ffffffffffffffffffffffffffffffffffffffff1614610427576040517f08c379a000000000000000000000000000000000000000000000000000000000815260040161041e9061070c565b60405180910390fd5b80620151806003541061043d5760006002819055505b806002600082825461044f919061073d565b925050819055504260038190555067016345785d8a000060025411156104a1576040517f6e9a044d00000000000000000000000000000000000000000000000000000000815260040160405180910390fd5b8273ffffffffffffffffffffffffffffffffffffffff166108fc839081150290604051600060405180830381858888f193505050501580156104e7573d6000803e3d6000fd5b50505050565b60008054906101000a900473ffffffffffffffffffffffffffffffffffffffff1681565b3373ffffffffffffffffffffffffffffffffffffffff167f7c6a000d6581009ece38db2bf0a802db87c25d55bdf668f06a962b9c7188477360405160405180910390a2565b6001818154811061056657600080fd5b906000526020600020016000915054906101000a900473ffffffffffffffffffffffffffffffffffffffff1681565b6104f1806108e883390190565b6000813590506105b1816108b9565b92915050565b6000813590506105c6816108d0565b92915050565b600080604083850312156105df57600080fd5b60006105ed858286016105a2565b92505060206105fe858286016105b7565b9150509250929050565b60006020828403121561061a57600080fd5b6000610628848285016105b7565b91505092915050565b61063a816107a5565b82525050565b61064981610793565b82525050565b610658816107e1565b82525050565b61066781610805565b82525050565b61067681610829565b82525050565b600061068960268361072c565b91506106948261086a565b604082019050919050565b60006020820190506106b46000830184610640565b92915050565b60006020820190506106cf600083018461064f565b92915050565b60006060820190506106ea600083018661065e565b6106f76020830185610631565b610704604083018461066d565b949350505050565b600060208201905081810360008301526107258161067c565b9050919050565b600082825260208201905092915050565b6000610748826107d7565b9150610753836107d7565b9250827fffffffffffffffffffffffffffffffffffffffffffffffffffffffffffffffff038211156107885761078761083b565b5b828201905092915050565b600061079e826107b7565b9050919050565b60006107b0826107b7565b9050919050565b600073ffffffffffffffffffffffffffffffffffffffff82169050919050565b6000819050919050565b60006107ec826107f3565b9050919050565b60006107fe826107b7565b9050919050565b600061081082610817565b9050919050565b6000610822826107b7565b9050919050565b6000610834826107d7565b9050919050565b7f4e487b7100000000000000000000000000000000000000000000000000000000600052601160045260246000fd5b7f4f6e6c7920746865206f776e65722063616e2063616c6c20746869732066756e60008201527f6374696f6e2e0000000000000000000000000000000000000000000000000000602082015250565b6108c2816107a5565b81146108cd57600080fd5b50565b6108d9816107d7565b81146108e457600080fd5b5056fe608060405234801561001057600080fd5b506040516104f13803806104f183398181016040528101906100329190610101565b826000806101000a81548173ffffffffffffffffffffffffffffffffffffffff021916908373ffffffffffffffffffffffffffffffffffffffff16021790555081600260006101000a81548173ffffffffffffffffffffffffffffffffffffffff021916908373ffffffffffffffffffffffffffffffffffffffff160217905550806001819055505050506101f5565b6000815190506100d1816101b0565b92915050565b6000815190506100e6816101c7565b92915050565b6000815190506100fb816101de565b92915050565b60008060006060848603121561011657600080fd5b6000610124868287016100d7565b9350506020610135868287016100c2565b9250506040610146868287016100ec565b9150509250925092565b600061015b82610186565b9050919050565b600061016d82610186565b9050919050565b600061017f82610150565b9050919050565b600073ffffffffffffffffffffffffffffffffffffffff82169050919050565b6000819050919050565b6101b981610162565b81146101c457600080fd5b50565b6101d081610174565b81146101db57600080fd5b50565b6101e7816101a6565b81146101f257600080fd5b50565b6102ed806102046000396000f3fe60806040526004361061002d5760003560e01c8063c35905c61461016c578063f887ea401461019757610167565b3661016757600154341461007c57600154346040517f7c83fcf0000000000000000000000000000000000000000000000000000000008152600401610073929190610240565b60405180910390fd5b60008054906101000a900473ffffffffffffffffffffffffffffffffffffffff1673ffffffffffffffffffffffffffffffffffffffff166397858c296040518163ffffffff1660e01b8152600401600060405180830381600087803b1580156100e457600080fd5b505af11580156100f8573d6000803e3d6000fd5b50505050600260009054906101000a900473ffffffffffffffffffffffffffffffffffffffff1673ffffffffffffffffffffffffffffffffffffffff166108fc349081150290604051600060405180830381858888f19350505050158015610164573d6000803e3d6000fd5b50005b600080fd5b34801561017857600080fd5b506101816101c2565b60405161018e9190610225565b60405180910390f35b3480156101a357600080fd5b506101ac6101c8565b6040516101b9919061020a565b60405180910390f35b60015481565b60008054906101000a900473ffffffffffffffffffffffffffffffffffffffff1681565b6101f581610293565b82525050565b61020481610289565b82525050565b600060208201905061021f60008301846101ec565b92915050565b600060208201905061023a60008301846101fb565b92915050565b600060408201905061025560008301856101fb565b61026260208301846101fb565b9392505050565b600073ffffffffffffffffffffffffffffffffffffffff82169050919050565b6000819050919050565b600061029e826102a5565b9050919050565b60006102b082610269565b905091905056fea26469706673582212203bb652b7f0605ed980482bf5ea336b1187029c75b75bed1babd8efcd40f8949264736f6c63430008040033a2646970667358221220cd2286ea33f3d1ef8db0ecafb9269bb9020b40a1d67ffba9b18c1aef5f5ede3a64736f6c63430008040033",
  "devdoc": {
    "kind": "dev",
    "methods": {},
    "version": 1
  },
  "userdoc": {
    "kind": "user",
    "methods": {},
    "version": 1
  },
  "storageLayout": {
    "storage": [
      {
        "astId": 91,
        "contract": "contracts/Router.sol:Router",
        "label": "owner",
        "offset": 0,
        "slot": "0",
        "type": "t_address"
      },
      {
        "astId": 95,
        "contract": "contracts/Router.sol:Router",
        "label": "orders",
        "offset": 0,
        "slot": "1",
        "type": "t_array(t_contract(IOrder)5)dyn_storage"
      },
      {
        "astId": 97,
        "contract": "contracts/Router.sol:Router",
        "label": "totalRefundsToday",
        "offset": 0,
        "slot": "2",
        "type": "t_uint256"
      },
      {
        "astId": 99,
        "contract": "contracts/Router.sol:Router",
        "label": "lastRefund",
        "offset": 0,
        "slot": "3",
        "type": "t_uint256"
      }
    ],
    "types": {
      "t_address": {
        "encoding": "inplace",
        "label": "address",
        "numberOfBytes": "20"
      },
      "t_array(t_contract(IOrder)5)dyn_storage": {
        "base": "t_contract(IOrder)5",
        "encoding": "dynamic_array",
        "label": "contract IOrder[]",
        "numberOfBytes": "32"
      },
      "t_contract(IOrder)5": {
        "encoding": "inplace",
        "label": "contract IOrder",
        "numberOfBytes": "20"
      },
      "t_uint256": {
        "encoding": "inplace",
        "label": "uint256",
        "numberOfBytes": "32"
      }
    }
  }
}