{
  "address": "0x8C38a25019883589601b4cD8aEDD5Aa018cF8C04",
  "abi": [
    {
      "inputs": [],
      "stateMutability": "nonpayable",
      "type": "constructor"
    },
    {
      "inputs": [],
      "name": "RefundLimitReached",
      "type": "error"
    },
    {
      "anonymous": false,
      "inputs": [
        {
          "indexed": true,
          "internalType": "address",
          "name": "orderAddress",
          "type": "address"
        }
      ],
      "name": "OrderCreated",
      "type": "event"
    },
    {
      "anonymous": false,
      "inputs": [
        {
          "indexed": true,
          "internalType": "address",
          "name": "sender",
          "type": "address"
        }
      ],
      "name": "Received",
      "type": "event"
    },
    {
      "inputs": [
        {
          "internalType": "address payable",
          "name": "_receiver",
          "type": "address"
        },
        {
          "internalType": "uint256",
          "name": "_amount",
          "type": "uint256"
        }
      ],
      "name": "issueRefund",
      "outputs": [],
      "stateMutability": "nonpayable",
      "type": "function"
    },
    {
      "inputs": [],
      "name": "newOrder",
      "outputs": [],
      "stateMutability": "nonpayable",
      "type": "function"
    },
    {
      "inputs": [],
      "name": "onPaymentCallback",
      "outputs": [],
      "stateMutability": "nonpayable",
      "type": "function"
    },
    {
      "inputs": [
        {
          "internalType": "uint256",
          "name": "",
          "type": "uint256"
        }
      ],
      "name": "orders",
      "outputs": [
        {
          "internalType": "contract IOrder",
          "name": "",
          "type": "address"
        }
      ],
      "stateMutability": "view",
      "type": "function"
    },
    {
      "inputs": [],
      "name": "owner",
      "outputs": [
        {
          "internalType": "address",
          "name": "",
          "type": "address"
        }
      ],
      "stateMutability": "view",
      "type": "function"
    }
  ],
  "transactionHash": "0x000d03077f7b09eb3228d687e7d7118240c06f8c312d913697dc5d99998b44f6",
  "args": [],
  "numDeployments": 2,
  "solcInputHash": "f35034f4df79abd1eb1e2ffd22ff2dde",
  "bytecode": "0x608060405234801561001057600080fd5b50336000806101000a81548173ffffffffffffffffffffffffffffffffffffffff021916908373ffffffffffffffffffffffffffffffffffffffff160217905550610cc3806100606000396000f3fe608060405234801561001057600080fd5b50600436106100575760003560e01c806306b0fcb31461005c578063738005aa146100665780638da5cb5b1461008257806397858c29146100a0578063a85c38ef146100aa575b600080fd5b6100646100da565b005b610080600480360381019061007b9190610481565b61024e565b005b61008a6103a2565b6040516100979190610554565b60405180910390f35b6100a86103c6565b005b6100c460048036038101906100bf91906104bd565b61040b565b6040516100d1919061056f565b60405180910390f35b60008054906101000a900473ffffffffffffffffffffffffffffffffffffffff1673ffffffffffffffffffffffffffffffffffffffff163373ffffffffffffffffffffffffffffffffffffffff1614610168576040517f08c379a000000000000000000000000000000000000000000000000000000000815260040161015f906105c1565b60405180910390fd5b60003030600060405161017a9061044a565b6101869392919061058a565b604051809103906000f0801580156101a2573d6000803e3d6000fd5b5090506001819080600181540180825580915050600190039060005260206000200160009091909190916101000a81548173ffffffffffffffffffffffffffffffffffffffff021916908373ffffffffffffffffffffffffffffffffffffffff1602179055508073ffffffffffffffffffffffffffffffffffffffff167fed94e6f8f334678b3265725f268ecd9032016d6050efeb9e673a561ffbfb0a7660405160405180910390a250565b60008054906101000a900473ffffffffffffffffffffffffffffffffffffffff1673ffffffffffffffffffffffffffffffffffffffff163373ffffffffffffffffffffffffffffffffffffffff16146102dc576040517f08c379a00000000000000000000000000000000000000000000000000000000081526004016102d3906105c1565b60405180910390fd5b8062015180600354106102f25760006002819055505b806002600082825461030491906105f2565b925050819055504260038190555067016345785d8a00006002541115610356576040517f6e9a044d00000000000000000000000000000000000000000000000000000000815260040160405180910390fd5b8273ffffffffffffffffffffffffffffffffffffffff166108fc839081150290604051600060405180830381858888f1935050505015801561039c573d6000803e3d6000fd5b50505050565b60008054906101000a900473ffffffffffffffffffffffffffffffffffffffff1681565b3373ffffffffffffffffffffffffffffffffffffffff167f7c6a000d6581009ece38db2bf0a802db87c25d55bdf668f06a962b9c7188477360405160405180910390a2565b6001818154811061041b57600080fd5b906000526020600020016000915054906101000a900473ffffffffffffffffffffffffffffffffffffffff1681565b6104f18061079d83390190565b6000813590506104668161076e565b92915050565b60008135905061047b81610785565b92915050565b6000806040838503121561049457600080fd5b60006104a285828601610457565b92505060206104b38582860161046c565b9150509250929050565b6000602082840312156104cf57600080fd5b60006104dd8482850161046c565b91505092915050565b6104ef8161065a565b82525050565b6104fe81610648565b82525050565b61050d81610696565b82525050565b61051c816106ba565b82525050565b61052b816106de565b82525050565b600061053e6026836105e1565b91506105498261071f565b604082019050919050565b600060208201905061056960008301846104f5565b92915050565b60006020820190506105846000830184610504565b92915050565b600060608201905061059f6000830186610513565b6105ac60208301856104e6565b6105b96040830184610522565b949350505050565b600060208201905081810360008301526105da81610531565b9050919050565b600082825260208201905092915050565b60006105fd8261068c565b91506106088361068c565b9250827fffffffffffffffffffffffffffffffffffffffffffffffffffffffffffffffff0382111561063d5761063c6106f0565b5b828201905092915050565b60006106538261066c565b9050919050565b60006106658261066c565b9050919050565b600073ffffffffffffffffffffffffffffffffffffffff82169050919050565b6000819050919050565b60006106a1826106a8565b9050919050565b60006106b38261066c565b9050919050565b60006106c5826106cc565b9050919050565b60006106d78261066c565b9050919050565b60006106e98261068c565b9050919050565b7f4e487b7100000000000000000000000000000000000000000000000000000000600052601160045260246000fd5b7f4f6e6c7920746865206f776e65722063616e2063616c6c20746869732066756e60008201527f6374696f6e2e0000000000000000000000000000000000000000000000000000602082015250565b6107778161065a565b811461078257600080fd5b50565b61078e8161068c565b811461079957600080fd5b5056fe608060405234801561001057600080fd5b506040516104f13803806104f183398181016040528101906100329190610101565b826000806101000a81548173ffffffffffffffffffffffffffffffffffffffff021916908373ffffffffffffffffffffffffffffffffffffffff16021790555081600260006101000a81548173ffffffffffffffffffffffffffffffffffffffff021916908373ffffffffffffffffffffffffffffffffffffffff160217905550806001819055505050506101f5565b6000815190506100d1816101b0565b92915050565b6000815190506100e6816101c7565b92915050565b6000815190506100fb816101de565b92915050565b60008060006060848603121561011657600080fd5b6000610124868287016100d7565b9350506020610135868287016100c2565b9250506040610146868287016100ec565b9150509250925092565b600061015b82610186565b9050919050565b600061016d82610186565b9050919050565b600061017f82610150565b9050919050565b600073ffffffffffffffffffffffffffffffffffffffff82169050919050565b6000819050919050565b6101b981610162565b81146101c457600080fd5b50565b6101d081610174565b81146101db57600080fd5b50565b6101e7816101a6565b81146101f257600080fd5b50565b6102ed806102046000396000f3fe60806040526004361061002d5760003560e01c8063c35905c61461016c578063f887ea401461019757610167565b3661016757600154341461007c57600154346040517f7c83fcf0000000000000000000000000000000000000000000000000000000008152600401610073929190610240565b60405180910390fd5b60008054906101000a900473ffffffffffffffffffffffffffffffffffffffff1673ffffffffffffffffffffffffffffffffffffffff166397858c296040518163ffffffff1660e01b8152600401600060405180830381600087803b1580156100e457600080fd5b505af11580156100f8573d6000803e3d6000fd5b50505050600260009054906101000a900473ffffffffffffffffffffffffffffffffffffffff1673ffffffffffffffffffffffffffffffffffffffff166108fc349081150290604051600060405180830381858888f19350505050158015610164573d6000803e3d6000fd5b50005b600080fd5b34801561017857600080fd5b506101816101c2565b60405161018e9190610225565b60405180910390f35b3480156101a357600080fd5b506101ac6101c8565b6040516101b9919061020a565b60405180910390f35b60015481565b60008054906101000a900473ffffffffffffffffffffffffffffffffffffffff1681565b6101f581610293565b82525050565b61020481610289565b82525050565b600060208201905061021f60008301846101ec565b92915050565b600060208201905061023a60008301846101fb565b92915050565b600060408201905061025560008301856101fb565b61026260208301846101fb565b9392505050565b600073ffffffffffffffffffffffffffffffffffffffff82169050919050565b6000819050919050565b600061029e826102a5565b9050919050565b60006102b082610269565b905091905056fea26469706673582212203bb652b7f0605ed980482bf5ea336b1187029c75b75bed1babd8efcd40f8949264736f6c63430008040033a2646970667358221220b377896211cd4cafbb9984ba65d8c1055c1fa2525713ff2645334221d3bc510764736f6c63430008040033",
  "devdoc": {
    "kind": "dev",
    "methods": {},
    "version": 1
  },
  "userdoc": {
    "kind": "user",
    "methods": {},
    "version": 1
  },
  "storageLayout": {
    "storage": [
      {
        "astId": 91,
        "contract": "contracts/Router.sol:Router",
        "label": "owner",
        "offset": 0,
        "slot": "0",
        "type": "t_address"
      },
      {
        "astId": 95,
        "contract": "contracts/Router.sol:Router",
        "label": "orders",
        "offset": 0,
        "slot": "1",
        "type": "t_array(t_contract(IOrder)5)dyn_storage"
      },
      {
        "astId": 97,
        "contract": "contracts/Router.sol:Router",
        "label": "totalRefundsToday",
        "offset": 0,
        "slot": "2",
        "type": "t_uint256"
      },
      {
        "astId": 99,
        "contract": "contracts/Router.sol:Router",
        "label": "lastRefund",
        "offset": 0,
        "slot": "3",
        "type": "t_uint256"
      }
    ],
    "types": {
      "t_address": {
        "encoding": "inplace",
        "label": "address",
        "numberOfBytes": "20"
      },
      "t_array(t_contract(IOrder)5)dyn_storage": {
        "base": "t_contract(IOrder)5",
        "encoding": "dynamic_array",
        "label": "contract IOrder[]",
        "numberOfBytes": "32"
      },
      "t_contract(IOrder)5": {
        "encoding": "inplace",
        "label": "contract IOrder",
        "numberOfBytes": "20"
      },
      "t_uint256": {
        "encoding": "inplace",
        "label": "uint256",
        "numberOfBytes": "32"
      }
    }
  }
}