{
  "address": "0x9fE46736679d2D9a65F0992F2272dE9f3c7fa6e0",
  "abi": [
    {
      "inputs": [],
      "stateMutability": "nonpayable",
      "type": "constructor"
    },
    {
      "inputs": [],
      "name": "RefundLimitReached",
      "type": "error"
    },
    {
      "anonymous": false,
      "inputs": [
        {
          "indexed": true,
          "internalType": "address",
          "name": "orderAddress",
          "type": "address"
        }
      ],
      "name": "OrderCreated",
      "type": "event"
    },
    {
      "anonymous": false,
      "inputs": [
        {
          "indexed": true,
          "internalType": "address",
          "name": "sender",
          "type": "address"
        }
      ],
      "name": "Received",
      "type": "event"
    },
    {
      "inputs": [
        {
          "internalType": "address payable",
          "name": "_receiver",
          "type": "address"
        },
        {
          "internalType": "uint256",
          "name": "_amount",
          "type": "uint256"
        }
      ],
      "name": "issueRefund",
      "outputs": [],
      "stateMutability": "nonpayable",
      "type": "function"
    },
    {
      "inputs": [
        {
          "internalType": "uint256",
          "name": "_price",
          "type": "uint256"
        }
      ],
      "name": "newOrder",
      "outputs": [],
      "stateMutability": "nonpayable",
      "type": "function"
    },
    {
      "inputs": [],
      "name": "onPaymentCallback",
      "outputs": [],
      "stateMutability": "nonpayable",
      "type": "function"
    },
    {
      "inputs": [
        {
          "internalType": "uint256",
          "name": "",
          "type": "uint256"
        }
      ],
      "name": "orders",
      "outputs": [
        {
          "internalType": "contract IOrder",
          "name": "",
          "type": "address"
        }
      ],
      "stateMutability": "view",
      "type": "function"
    },
    {
      "inputs": [],
      "name": "owner",
      "outputs": [
        {
          "internalType": "address",
          "name": "",
          "type": "address"
        }
      ],
      "stateMutability": "view",
      "type": "function"
    },
    {
      "inputs": [
        {
          "internalType": "uint256",
          "name": "am",
          "type": "uint256"
        }
      ],
      "name": "takeFunds",
      "outputs": [],
      "stateMutability": "nonpayable",
      "type": "function"
    },
    {
      "stateMutability": "payable",
      "type": "receive"
    }
  ],
  "transactionHash": "0x2da0eaddce30b852648c9387abc7e0b73aebbab51e636a9bf9139a370c0f2218",
  "args": [],
  "numDeployments": 1,
  "solcInputHash": "39e62e1698a5da03d4c880429672010a",
  "bytecode": "0x608060405234801561001057600080fd5b50336000806101000a81548173ffffffffffffffffffffffffffffffffffffffff021916908373ffffffffffffffffffffffffffffffffffffffff160217905550610e0e806100606000396000f3fe6080604052600436106100595760003560e01c80636b527c0c14610065578063738005aa1461008e5780638da5cb5b146100b757806397858c29146100e2578063a85c38ef146100f9578063bd3054271461013657610060565b3661006057005b600080fd5b34801561007157600080fd5b5061008c6004803603810190610087919061061a565b61015f565b005b34801561009a57600080fd5b506100b560048036038101906100b091906105de565b610237565b005b3480156100c357600080fd5b506100cc61038b565b6040516100d991906106b1565b60405180910390f35b3480156100ee57600080fd5b506100f76103af565b005b34801561010557600080fd5b50610120600480360381019061011b919061061a565b6103f4565b60405161012d91906106cc565b60405180910390f35b34801561014257600080fd5b5061015d6004803603810190610158919061061a565b610433565b005b60008054906101000a900473ffffffffffffffffffffffffffffffffffffffff1673ffffffffffffffffffffffffffffffffffffffff163373ffffffffffffffffffffffffffffffffffffffff16146101ed576040517f08c379a00000000000000000000000000000000000000000000000000000000081526004016101e49061071e565b60405180910390fd5b3373ffffffffffffffffffffffffffffffffffffffff166108fc829081150290604051600060405180830381858888f19350505050158015610233573d6000803e3d6000fd5b5050565b60008054906101000a900473ffffffffffffffffffffffffffffffffffffffff1673ffffffffffffffffffffffffffffffffffffffff163373ffffffffffffffffffffffffffffffffffffffff16146102c5576040517f08c379a00000000000000000000000000000000000000000000000000000000081526004016102bc9061071e565b60405180910390fd5b8062015180600354106102db5760006002819055505b80600260008282546102ed919061074f565b925050819055504260038190555067016345785d8a0000600254111561033f576040517f6e9a044d00000000000000000000000000000000000000000000000000000000815260040160405180910390fd5b8273ffffffffffffffffffffffffffffffffffffffff166108fc839081150290604051600060405180830381858888f19350505050158015610385573d6000803e3d6000fd5b50505050565b60008054906101000a900473ffffffffffffffffffffffffffffffffffffffff1681565b3373ffffffffffffffffffffffffffffffffffffffff167f7c6a000d6581009ece38db2bf0a802db87c25d55bdf668f06a962b9c7188477360405160405180910390a2565b6001818154811061040457600080fd5b906000526020600020016000915054906101000a900473ffffffffffffffffffffffffffffffffffffffff1681565b60008054906101000a900473ffffffffffffffffffffffffffffffffffffffff1673ffffffffffffffffffffffffffffffffffffffff163373ffffffffffffffffffffffffffffffffffffffff16146104c1576040517f08c379a00000000000000000000000000000000000000000000000000000000081526004016104b89061071e565b60405180910390fd5b60003030836040516104d2906105a7565b6104de939291906106e7565b604051809103906000f0801580156104fa573d6000803e3d6000fd5b5090506001819080600181540180825580915050600190039060005260206000200160009091909190916101000a81548173ffffffffffffffffffffffffffffffffffffffff021916908373ffffffffffffffffffffffffffffffffffffffff1602179055508073ffffffffffffffffffffffffffffffffffffffff167fed94e6f8f334678b3265725f268ecd9032016d6050efeb9e673a561ffbfb0a7660405160405180910390a25050565b6104f1806108e883390190565b6000813590506105c3816108b9565b92915050565b6000813590506105d8816108d0565b92915050565b600080604083850312156105f157600080fd5b60006105ff858286016105b4565b9250506020610610858286016105c9565b9150509250929050565b60006020828403121561062c57600080fd5b600061063a848285016105c9565b91505092915050565b61064c816107b7565b82525050565b61065b816107a5565b82525050565b61066a816107f3565b82525050565b61067981610817565b82525050565b600061068c60268361073e565b91506106978261086a565b604082019050919050565b6106ab816107e9565b82525050565b60006020820190506106c66000830184610652565b92915050565b60006020820190506106e16000830184610661565b92915050565b60006060820190506106fc6000830186610670565b6107096020830185610643565b61071660408301846106a2565b949350505050565b600060208201905081810360008301526107378161067f565b9050919050565b600082825260208201905092915050565b600061075a826107e9565b9150610765836107e9565b9250827fffffffffffffffffffffffffffffffffffffffffffffffffffffffffffffffff0382111561079a5761079961083b565b5b828201905092915050565b60006107b0826107c9565b9050919050565b60006107c2826107c9565b9050919050565b600073ffffffffffffffffffffffffffffffffffffffff82169050919050565b6000819050919050565b60006107fe82610805565b9050919050565b6000610810826107c9565b9050919050565b600061082282610829565b9050919050565b6000610834826107c9565b9050919050565b7f4e487b7100000000000000000000000000000000000000000000000000000000600052601160045260246000fd5b7f4f6e6c7920746865206f776e65722063616e2063616c6c20746869732066756e60008201527f6374696f6e2e0000000000000000000000000000000000000000000000000000602082015250565b6108c2816107b7565b81146108cd57600080fd5b50565b6108d9816107e9565b81146108e457600080fd5b5056fe608060405234801561001057600080fd5b506040516104f13803806104f183398181016040528101906100329190610101565b826000806101000a81548173ffffffffffffffffffffffffffffffffffffffff021916908373ffffffffffffffffffffffffffffffffffffffff16021790555081600260006101000a81548173ffffffffffffffffffffffffffffffffffffffff021916908373ffffffffffffffffffffffffffffffffffffffff160217905550806001819055505050506101f5565b6000815190506100d1816101b0565b92915050565b6000815190506100e6816101c7565b92915050565b6000815190506100fb816101de565b92915050565b60008060006060848603121561011657600080fd5b6000610124868287016100d7565b9350506020610135868287016100c2565b9250506040610146868287016100ec565b9150509250925092565b600061015b82610186565b9050919050565b600061016d82610186565b9050919050565b600061017f82610150565b9050919050565b600073ffffffffffffffffffffffffffffffffffffffff82169050919050565b6000819050919050565b6101b981610162565b81146101c457600080fd5b50565b6101d081610174565b81146101db57600080fd5b50565b6101e7816101a6565b81146101f257600080fd5b50565b6102ed806102046000396000f3fe60806040526004361061002d5760003560e01c8063c35905c61461016c578063f887ea401461019757610167565b3661016757600154341461007c57600154346040517f7c83fcf0000000000000000000000000000000000000000000000000000000008152600401610073929190610240565b60405180910390fd5b60008054906101000a900473ffffffffffffffffffffffffffffffffffffffff1673ffffffffffffffffffffffffffffffffffffffff166397858c296040518163ffffffff1660e01b8152600401600060405180830381600087803b1580156100e457600080fd5b505af11580156100f8573d6000803e3d6000fd5b50505050600260009054906101000a900473ffffffffffffffffffffffffffffffffffffffff1673ffffffffffffffffffffffffffffffffffffffff166108fc349081150290604051600060405180830381858888f19350505050158015610164573d6000803e3d6000fd5b50005b600080fd5b34801561017857600080fd5b506101816101c2565b60405161018e9190610225565b60405180910390f35b3480156101a357600080fd5b506101ac6101c8565b6040516101b9919061020a565b60405180910390f35b60015481565b60008054906101000a900473ffffffffffffffffffffffffffffffffffffffff1681565b6101f581610293565b82525050565b61020481610289565b82525050565b600060208201905061021f60008301846101ec565b92915050565b600060208201905061023a60008301846101fb565b92915050565b600060408201905061025560008301856101fb565b61026260208301846101fb565b9392505050565b600073ffffffffffffffffffffffffffffffffffffffff82169050919050565b6000819050919050565b600061029e826102a5565b9050919050565b60006102b082610269565b905091905056fea26469706673582212203bb652b7f0605ed980482bf5ea336b1187029c75b75bed1babd8efcd40f8949264736f6c63430008040033a264697066735822122038cdeb3f7fb4c3dad8e32166f389831707e6bf464cdc9a4b7542892701ac701a64736f6c63430008040033",
  "devdoc": {
    "kind": "dev",
    "methods": {},
    "version": 1
  },
  "userdoc": {
    "kind": "user",
    "methods": {},
    "version": 1
  },
  "storageLayout": {
    "storage": [
      {
        "astId": 91,
        "contract": "contracts/Router.sol:Router",
        "label": "owner",
        "offset": 0,
        "slot": "0",
        "type": "t_address"
      },
      {
        "astId": 95,
        "contract": "contracts/Router.sol:Router",
        "label": "orders",
        "offset": 0,
        "slot": "1",
        "type": "t_array(t_contract(IOrder)5)dyn_storage"
      },
      {
        "astId": 97,
        "contract": "contracts/Router.sol:Router",
        "label": "totalRefundsToday",
        "offset": 0,
        "slot": "2",
        "type": "t_uint256"
      },
      {
        "astId": 99,
        "contract": "contracts/Router.sol:Router",
        "label": "lastRefund",
        "offset": 0,
        "slot": "3",
        "type": "t_uint256"
      }
    ],
    "types": {
      "t_address": {
        "encoding": "inplace",
        "label": "address",
        "numberOfBytes": "20"
      },
      "t_array(t_contract(IOrder)5)dyn_storage": {
        "base": "t_contract(IOrder)5",
        "encoding": "dynamic_array",
        "label": "contract IOrder[]",
        "numberOfBytes": "32"
      },
      "t_contract(IOrder)5": {
        "encoding": "inplace",
        "label": "contract IOrder",
        "numberOfBytes": "20"
      },
      "t_uint256": {
        "encoding": "inplace",
        "label": "uint256",
        "numberOfBytes": "32"
      }
    }
  }
}